{
  "_format": "hh-sol-artifact-1",
  "contractName": "CertificateIssuer",
  "sourceName": "contracts/CertificateIssuer.sol",
  "abi": [
    {
      "inputs": [],
      "stateMutability": "nonpayable",
      "type": "constructor"
    },
    {
      "inputs": [
        {
          "internalType": "address",
          "name": "",
          "type": "address"
        }
      ],
      "name": "certificates",
      "outputs": [
        {
          "internalType": "bytes32",
          "name": "hash",
          "type": "bytes32"
        },
        {
          "internalType": "bool",
          "name": "isValid",
          "type": "bool"
        }
      ],
      "stateMutability": "view",
      "type": "function"
    },
    {
      "inputs": [
        {
          "internalType": "address",
          "name": "user",
          "type": "address"
        },
        {
          "internalType": "bytes32",
          "name": "certHash",
          "type": "bytes32"
        }
      ],
      "name": "issueCertificate",
      "outputs": [],
      "stateMutability": "nonpayable",
      "type": "function"
    },
    {
      "inputs": [
        {
          "internalType": "address",
          "name": "user",
          "type": "address"
        }
      ],
      "name": "registerUser",
      "outputs": [],
      "stateMutability": "nonpayable",
      "type": "function"
    },
    {
      "inputs": [
        {
          "internalType": "address",
          "name": "",
          "type": "address"
        }
      ],
      "name": "registeredUsers",
      "outputs": [
        {
          "internalType": "bool",
          "name": "",
          "type": "bool"
        }
      ],
      "stateMutability": "view",
      "type": "function"
    },
    {
      "inputs": [],
      "name": "school",
      "outputs": [
        {
          "internalType": "address",
          "name": "",
          "type": "address"
        }
      ],
      "stateMutability": "view",
      "type": "function"
    },
    {
      "inputs": [
        {
          "internalType": "address",
          "name": "user",
          "type": "address"
        },
        {
          "internalType": "bytes32",
          "name": "uploadedHash",
          "type": "bytes32"
        }
      ],
      "name": "verifyCertificate",
      "outputs": [
        {
          "internalType": "bool",
          "name": "",
          "type": "bool"
        }
      ],
      "stateMutability": "view",
      "type": "function"
    }
  ],
  "bytecode": "0x6080604052348015600f57600080fd5b50336000806101000a81548173ffffffffffffffffffffffffffffffffffffffff021916908373ffffffffffffffffffffffffffffffffffffffff1602179055506107c18061005f6000396000f3fe608060405234801561001057600080fd5b50600436106100615760003560e01c806216e526146100665780630dc2ccf3146100975780630e50cee5146100c75780631908999f146100f75780632199d5cd14610113578063812c8d5f1461012f575b600080fd5b610080600480360381019061007b9190610541565b61014d565b60405161008e9291906105a2565b60405180910390f35b6100b160048036038101906100ac91906105f7565b61017e565b6040516100be9190610637565b60405180910390f35b6100e160048036038101906100dc9190610541565b61020f565b6040516100ee9190610637565b60405180910390f35b610111600480360381019061010c91906105f7565b61022f565b005b61012d60048036038101906101289190610541565b6103d1565b005b6101376104ba565b6040516101449190610661565b60405180910390f35b60016020528060005260406000206000915090508060000154908060010160009054906101000a900460ff16905082565b600080600160008573ffffffffffffffffffffffffffffffffffffffff1673ffffffffffffffffffffffffffffffffffffffff168152602001908152602001600020604051806040016040529081600082015481526020016001820160009054906101000a900460ff1615151515815250509050806020015180156102065750828160000151145b91505092915050565b60026020528060005260406000206000915054906101000a900460ff1681565b60008054906101000a900473ffffffffffffffffffffffffffffffffffffffff1673ffffffffffffffffffffffffffffffffffffffff163373ffffffffffffffffffffffffffffffffffffffff16146102bd576040517f08c379a00000000000000000000000000000000000000000000000000000000081526004016102b4906106ff565b60405180910390fd5b600260008373ffffffffffffffffffffffffffffffffffffffff1673ffffffffffffffffffffffffffffffffffffffff16815260200190815260200160002060009054906101000a900460ff16610349576040517f08c379a00000000000000000000000000000000000000000000000000000000081526004016103409061076b565b60405180910390fd5b604051806040016040528082815260200160011515815250600160008473ffffffffffffffffffffffffffffffffffffffff1673ffffffffffffffffffffffffffffffffffffffff1681526020019081526020016000206000820151816000015560208201518160010160006101000a81548160ff0219169083151502179055509050505050565b60008054906101000a900473ffffffffffffffffffffffffffffffffffffffff1673ffffffffffffffffffffffffffffffffffffffff163373ffffffffffffffffffffffffffffffffffffffff161461045f576040517f08c379a0000000000000000000000000000000000000000000000000000000008152600401610456906106ff565b60405180910390fd5b6001600260008373ffffffffffffffffffffffffffffffffffffffff1673ffffffffffffffffffffffffffffffffffffffff16815260200190815260200160002060006101000a81548160ff02191690831515021790555050565b60008054906101000a900473ffffffffffffffffffffffffffffffffffffffff1681565b600080fd5b600073ffffffffffffffffffffffffffffffffffffffff82169050919050565b600061050e826104e3565b9050919050565b61051e81610503565b811461052957600080fd5b50565b60008135905061053b81610515565b92915050565b600060208284031215610557576105566104de565b5b60006105658482850161052c565b91505092915050565b6000819050919050565b6105818161056e565b82525050565b60008115159050919050565b61059c81610587565b82525050565b60006040820190506105b76000830185610578565b6105c46020830184610593565b9392505050565b6105d48161056e565b81146105df57600080fd5b50565b6000813590506105f1816105cb565b92915050565b6000806040838503121561060e5761060d6104de565b5b600061061c8582860161052c565b925050602061062d858286016105e2565b9150509250929050565b600060208201905061064c6000830184610593565b92915050565b61065b81610503565b82525050565b60006020820190506106766000830184610652565b92915050565b600082825260208201905092915050565b7f4f6e6c7920746865207363686f6f6c2063616e20706572666f726d207468697360008201527f20616374696f6e2e000000000000000000000000000000000000000000000000602082015250565b60006106e960288361067c565b91506106f48261068d565b604082019050919050565b60006020820190508181036000830152610718816106dc565b9050919050565b7f55736572206e6f74207265676973746572656400000000000000000000000000600082015250565b600061075560138361067c565b91506107608261071f565b602082019050919050565b6000602082019050818103600083015261078481610748565b905091905056fea26469706673582212206ebdb543664e2bfe2558ce22ff24580c23e216aab1b9f1552316c50d7297e4fa64736f6c634300081c0033",
  "linkReferences": {},
  "deployedLinkReferences": {}
}